:020000040800F2
:100000008806002081010008B3090008B109000832
:1000100000000000000000000000000000000000E0
:10002000000000000000000000000000B709000808
:100030000000000000000000B5090008B909000830
:100040009301000893010008930100089301000840
:100050009301000893010008930100089301000830
:100060009301000893010008930100089301000820
:100070009301000893010008930100089301000810
:100080009301000893010008930100089301000800
:1000900093010008930100089301000893010008F0
:1000A00093010008930100089301000893010008E0
:1000B00093010008C5090008930100089301000896
:1000C00000F002F800F04CF812A030C808382418EC
:1000D0002D18AC4201D100F043F80FCCA246AB463C
:1000E0000CA730CF2D1B083F3F197C427F1E544484
:1000F0002D090426F441641EAC4201D300F030F80F
:100100000126334200D0FB1A3343984754465D46DC
:10011000DFE70000001A0000201A0000103A02D3A6
:1001200078C878C1FAD8520701D330C830C101D598
:1001300004680C6070470000704700000023002432
:1001400000250026103A01D378C1FBD8520700D30E
:1001500030C100D50B6070471FB51FBD10B510BD75
:1001600000F04DF81146FFF7F7FF01F00FFA00F02D
:1001700065F803B4FFF7F2FF03BC00F06BF8000072
:100180000748804707480047FEE7FEE7FEE7FEE72F
:10019000FEE7FEE704480549054A064B70470000A4
:1001A000C1090008C100000888000020880600205E
:1001B000880200208802002001E004C0091F0429F1
:1001C000FBD28B0701D50280801CC90700D00270CA
:1001D000704700290BD0C30702D00270401C491E93
:1001E000022904D3830702D50280801C891EE3E71D
:1001F0000022EEE70022DFE7704770477047754640
:1002000000F024F8AE46050069465346C008C00019
:10021000854618B020B5FFF7BDFF60BCB646002686
:100220000027C0C5C0C5C0C5C0C5C0C5C0C5C0C504
:10023000C0C5403D490849008D46704710B5044689
:10024000C046C0462046FFF794FF10BD00487047E7
:100250001000002001491820ABBEFEE72600020076
:10026000704742690B4693430A401104C9188161E3
:1002700070470000054800687047C0461A4800787B
:1002800002490A68101808607047C04680000020C4
:1002900080B58548016810220A430260032000F0FF
:1002A00005F800F023F8002080BDC04670B5044674
:1002B0007D20C0000C4E317801F018FB01468448C7
:1002C000006801F013FB00F059FB0125032C08D84E
:1002D000002806D10025E84321462A4600F01CF8F4
:1002E0007460284670BDC0460000002082B00948F6
:1002F00001680122114301600168114001910199D7
:10030000110742680A434260406808400090009824
:1003100002B0704718100240002805D4032203469B
:1003200093430A4A9A1803E00C220240064BD21863
:100330008007C00E8901C9B28140FF238340106845
:10034000984308431060704714ED00E000E400E0BB
:10035000F0B581B0002846D00446534A1368012006
:1003600003408B4208D213680126B3430B4313604A
:10037000126832408A4237D1009121688A074B4B7C
:1003800010D54A0706D5072212021B681343474AB5
:100390001360464B1A68F0239A43A3681343434AF9
:1003A0001360424BC90722D13F49086801263040FB
:1003B000009A904205D90868B04308600868C007F1
:1003C00012D12078400706D5072000021968814322
:1003D000E068084318601A681007810F3548022941
:1003E00012D2044650E00126304601B0F0BD6168EB
:1003F00003290DD01A1F02290FD0012912D112682A
:1004000092030646F0D511E0032926D12A4C3BE0A1
:100410001A6B92030646E7D508E012689201064679
:10042000E2D503E0126892070646DDD51868032678
:10043000B04308431860FFF71DFF07461C4D1B4BD8
:1004400018680C210140606880008142ACD0FFF741
:1004500011FFC01BA842F2D9C6E70321CB03134901
:10046000896A0F240C401549095D94021A40240F33
:10047000134D2C5D9A4202D033049A4200E00E489C
:1004800001F034FA4443094B18680006000F0D4987
:10049000085CC4400E4804600320FFF707FF0026F5
:1004A000304601B0F0BDC0460020024004100240BA
:1004B0008813000000127A00006CDC02021B0008A6
:1004C000F21A0008E21A0008014800687047C046A6
:1004D00008000020F0B587B004460120002C00D1B0
:1004E00045E204902078C007F94E05940CD071685D
:1004F0000C200140042900D090E03068800303D52F
:100500006068002800D120E12078800721D570683C
:100510000007800F0ED070680C210140082900D020
:100520009DE00320C003716801400120C0038142A7
:1005300000D094E030688007059C03D5E06801286E
:1005400000D002E13068F82188432169C9000143E5
:100550003160059C2078000724D42078400737D4E8
:100560002078C00600D4D3E005984069411D00D131
:10057000C2E0012800D030E1706B042101437163B7
:10058000706B012101437163FFF774FE0546706BC8
:10059000800700D5B4E0FFF76DFE411B0320022960
:1005A000F5D9E4E1706AE169002900D181E0012117
:1005B00008437062FFF75EFE0546706A8007CCD480
:1005C000FFF758FE401B0228F7D9032007B0F0BD03
:1005D000012003900107F0690840029006D1F069FC
:1005E0000843F061F0690840069006980191E14FD8
:1005F0003868C0054AD4039804023868204338603C
:10060000FFF738FE0546386820423FD1FFF732FE3B
:10061000401B6428F7D9032007B0F0BD7168014082
:10062000082908D10320C00371680140012000049B
:10063000814200D161E7616801204704002900D1AF
:1006400017E1052900D12BE1012900D12CE101049A
:1006500032688A43326081043068884327E1306819
:10066000059CE168002936D0012108433060FFF77E
:1006700001FE05463068800700D563E7FFF7FAFD05
:10068000401B0228F6D9032007B0F0BD059880680A
:10069000002800D1B6E0052800D1C9E0012800D12A
:1006A000CAE0306A039988433062306A0421884383
:1006B000C5E0012188437062FFF7DCFD0546706AE2
:1006C000800700D449E7FFF7D5FD401B0228F6D983
:1006D000032007B0F0BD012188433060FFF7CAFD59
:1006E00005463068800700D433E7FFF7C3FD411BA0
:1006F00003200229F5D93AE1706B04218843706325
:10070000706BF821884305998969C90001437163B9
:100710000598007880060BD571680C2001400C29E3
:1007200039D1706B800303D50598006A01280CD17C
:100730000598446A002C00D1E1E070680C2101406A
:10074000082905D1012C00D0C4E0049807B0F0BD01
:100750000120020631680492914331604706FFF799
:1007600089FD0546022C0BD1049C3068384200D12B
:10077000DEE0FFF77FFD411B03200229F5D9F6E0FB
:100780003068384200D1BAE0FFF774FD411B032006
:100790000229F5D9EBE071680140082905D1032051
:1007A000C003716801408142BBD0706B0599096A32
:1007B000002900D1A9E001210A04104370634C0410
:1007C000FFF758FD0546706B2042B1D1FFF752FD8F
:1007D000411B03200229F6D9C9E0706B04210143B3
:1007E0007163706B012188437063FFF743FD054619
:1007F000706B80078CD5FFF73DFD411B032002295C
:10080000F6D9B4E0306A039988433062306A042133
:1008100088433062584CFFF72DFD0546306A80074B
:100820001DD5FFF727FD411B0320A142F6D99EE00D
:10083000306A042101433162306A0399084330620F
:100840004D4CFFF717FD0546306A800707D4FFF7C8
:1008500011FD401BA042F7D9032007B0F0BD02985C
:100860000028059C00D07BE6F06901998843F0617F
:1008700076E6010432688A4332608004316881433D
:100880003160FFF7F7FC0546059C3068384200D11F
:100890003AE6FFF7EFFC411B03206429F5D966E037
:1008A000810432680A4332600104306808433060D2
:1008B000FFF7E0FC05463068384200D024E6FFF739
:1008C000D9FC401B6428F6D9032007B0F0BDC04610
:1008D000001002400320C20370680240F16A059CC8
:1008E000A36A9A42049D0DD10F221140236B9942B5
:1008F00008D191040840E16A8842284637D1002097
:1009000007B0F0BD284607B0F0BD01210A049043AE
:1009100070634C04FFF7AEFC0546706B204200D1BB
:1009200006E7FFF7A7FC411B03200229F5D91EE0CB
:10093000F06A0F218843059A116B0143F1627B2015
:10094000C00371688143D06A0843916A01437160B2
:10095000306820433060FFF78DFC04463068384231
:10096000CDD1FFF787FC011B03200229F6D907B080
:10097000F0BDC0460070004088130000401E010E0C
:1009800001D0012070470749074A506007480368B3
:100990000B4003218907591801600020906007214E
:1009A00011607047FFFFFF0010E000E020ED00E065
:1009B000FEE7FEE77047704780B5FFF75FFC80BD3C
:1009C0007047000070B52F480168890608D4016897
:1009D000890605D40168890602D401688906F3D521
:1009E0000189C9B2284C216001813039422900D9DE
:1009F000FEE049007944898849008F444700450456
:100A0000E904F900F900F900F900F900F900F9002A
:100A1000F900F900F900F900F900F900F900F9000E
:100A2000F900F900F900F900F900F900F900F900FE
:100A3000F900F900F900F900F900F900F900F900EE
:100A4000F900F900F900F900F900F900F900F900DE
:100A5000F900F900F900F900F900F900F900F900CE
:100A60002B02F900F900F900F900A902F900F900D8
:100A7000F900F900F900F900F9003303F900F90071
:100A8000CC03C0461C48004070000020A16800292B
:100A900000D1AAE00268120608D40268120605D442
:100AA0000268120602D402681206F3D5432282813C
:100AB0000268120608D40268120605D402681206FB
:100AC00002D402681206F3D54F22828103681B0606
:100AD00008D403681B0605D403681B0602D4036808
:100AE0001B06F3D54D23838105682D0608D40568C0
:100AF0002D0605D405682D0602D405682D06F3D50C
:100B0000838103681B0608D403681B0605D40368A9
:100B10001B0602D403681B06F3D5412383810368B7
:100B20001B0608D403681B0605D403681B0602D401
:100B300003681B06F3D54E23838103681B0608D484
:100B400003681B0605D403681B0602D403681B0652
:100B5000F3D54423838103681B0608D403681B066E
:100B600005D403681B0602D403681B06F3D52023B3
:100B7000838103681B0608D403681B0605D4036839
:100B80001B0602D403681B06F3D582810268120695
:100B900008D40268120605D40268120602D402685C
:100BA0001206F3D54622828103681B0608D4036827
:100BB0001B0605D403681B0602D403681B06F3D585
:100BC00082810268120608D40268120605D40268FF
:100BD000120602D402681206F3D50A22828101208D
:100BE0008840DA490A6882430A600120606070BD6B
:100BF0000168090608D40168090605D401680906D8
:100C000002D401680906F3D54521818101680906EE
:100C100008D40168090605D40168090602D40168F0
:100C20000906F3D5722282810168090608D4016899
:100C3000090605D40168090602D401680906F3D53E
:100C400082810168090608D40168090605D4016893
:100C5000090602D401680906F3D56F218181036872
:100C60001B0608D403681B0605D403681B0602D4C0
:100C700003681B06F3D582810268120608D4026855
:100C8000120605D40268120602D402681206F3D5D1
:100C90003A2282810268120608D40268120605D43C
:100CA0000268120602D402681206F3D52025858157
:100CB0000268120608D40268120605D402681206F9
:100CC00002D402681206F3D5492282810268120614
:100CD00008D40268120605D40268120602D402681B
:100CE0001206F3D5762282810268120608D40268C1
:100CF000120605D40268120602D402681206F3D561
:100D00006122828103681B0608D403681B0605D490
:100D100003681B0602D403681B06F3D56C2383818A
:100D200003681B0608D403681B0605D403681B066A
:100D300002D403681B06F3D56923838103681B066D
:100D400008D403681B0605D403681B0602D4036895
:100D50001B06F3D5642383810668360608D406682B
:100D6000360605D40668360602D406683606F3D57C
:100D7000858105682D0608D405682D0605D405680B
:100D80002D0602D405682D06F3D543258581056817
:100D90002D0608D405682D0605D405682D0602D455
:100DA00005682D06F3D581810168090608D401681C
:100DB000090605D40168090602D401680906F3D5BD
:100DC0006D21818105682D0608D405682D0605D49E
:100DD00005682D0602D405682D06F3D581810168CA
:100DE000090608D40168090605D40168090602D479
:100DF00001680906F3D582810168090608D40168F3
:100E0000090605D40168090602D401680906F3D56C
:100E10006E2181810168090608D40168090605D49C
:100E20000168090602D401680906F3D583810168C7
:100E3000090608D40168090605D40168090602D428
:100E400001680906F3D50021A1600A2181810120F2
:100E5000606070BD0168090608D40168090605D400
:100E60000168090602D401680906F3D5422181818F
:100E70000168090608D40168090605D40168090655
:100E800002D401680906F3D54C218181026812065B
:100E900008D40268120605D40268120602D4026859
:100EA0001206F3D5552282810268120608D4026820
:100EB000120605D40268120602D402681206F3D59F
:100EC0004522828103681B0608D403681B0605D4EB
:100ED00003681B0602D403681B06F3D52023838115
:100EE00003681B0608D403681B0605D403681B06A9
:100EF00002D403681B06F3D581810168090608D472
:100F00000168090605D40168090602D401680906CA
:100F1000F3D582810168090608D40168090605D461
:100F20000168090602D401680906F3D544218181CC
:100F30000168090608D40168090605D40168090694
:100F400002D401680906F3D5072191E1140800488D
:100F50000168090608D40168090605D40168090674
:100F600002D401680906F3D5472181810168090689
:100F700008D40168090605D40168090602D401688D
:100F80000906F3D5522181810168090608D4016858
:100F9000090605D40168090602D401680906F3D5DB
:100FA000452181810268120608D40268120605D420
:100FB0000268120602D402681206F3D58181026823
:100FC000120608D40268120605D40268120602D47A
:100FD00002681206F3D54E2282810268120608D4F6
:100FE0000268120605D40268120602D402681206CC
:100FF000F3D5202282810268120608D40268120604
:1010000005D40268120602D402681206F3D54C22F7
:1010100082810268120608D40268120605D40268AA
:10102000120602D402681206F3D58181016809060E
:1010300008D40168090605D40168090602D40168CC
:101040000906F3D5442181810168090608D40168A5
:10105000090605D40168090602D401680906F3D51A
:10106000092105E10168090608D40168090605D4CB
:101070000168090602D401680906F3D54F21818170
:101080000168090608D40168090605D40168090643
:1010900002D401680906F3D552218181016809064D
:1010A00008D40168090605D40168090602D401685C
:1010B0000906F3D5412181810168090608D4016838
:1010C000090605D40168090602D401680906F3D5AA
:1010D0004E2181810168090608D40168090605D4FA
:1010E0000168090602D401680906F3D54721818108
:1010F0000168090608D40168090605D401680906D3
:1011000002D401680906F3D54521818102681206DF
:1011100008D40268120605D40268120602D40268D6
:101120001206F3D5202282810268120608D40268D2
:10113000120605D40268120602D402681206F3D51C
:101140004C2282810268120608D40268120605D475
:101150000268120602D402681206F3D58181016882
:10116000090608D40168090605D40168090602D4F5
:1011700001680906F3D5442181810168090608D474
:101180000168090605D40168090602D40168090648
:10119000F3D508216CE00168090608D40168090646
:1011A00005D40168090602D401680906F3D5522165
:1011B00081810168090608D40168090605D401681F
:1011C000090602D401680906F3D545218181026828
:1011D000120608D40268120605D40268120602D468
:1011E00002681206F3D54422828103681B0608D4E4
:1011F00003681B0605D403681B0602D403681B069C
:10120000F3D52023838103681B0608D403681B06DB
:1012100005D403681B0602D403681B06F3D54C23D0
:10122000838103681B0608D403681B0605D4036882
:101230001B0602D403681B06F3D5818101680906E9
:1012400008D40168090605D40168090602D40168BA
:101250000906F3D582810168090608D401680906E8
:1012600005D40168090602D401680906F3D50621F0
:10127000A1600A218181C448143801214902FEF786
:10128000F0FF0120606070BDA168002900D1ACE4CE
:101290000268120608D40268120605D40268120613
:1012A00002D402681206F3D5432282810268120634
:1012B00008D40268120605D40268120602D4026835
:1012C0001206F3D54F22828103681B0608D40368F7
:1012D0001B0605D403681B0602D403681B06F3D55E
:1012E0004D23838105682D0608D405682D0605D495
:1012F00005682D0602D405682D06F3D583810368A1
:101300001B0608D403681B0605D403681B0602D419
:1013100003681B06F3D54123838103681B0608D4A9
:1013200003681B0605D403681B0602D403681B066A
:10133000F3D54E23838105682D0608D405682D0654
:1013400005D405682D0602D405682D06F3D544257D
:10135000858105682D0608D405682D0605D4056825
:101360002D0602D405682D06F3D520258581056854
:101370002D0608D405682D0605D405682D0602D46F
:1013800005682D06F3D582810268120608D402682A
:10139000120605D40268120602D402681206F3D5BA
:1013A00083810268120608D40268120605D4026816
:1013B000120602D402681206F3D50A2282810120A5
:1013C000884071490A6802430A600120606070BD6C
:1013D000A168002900D108E40268120608D4026856
:1013E000120605D40268120602D402681206F3D56A
:1013F000432282810268120608D40268120605D4CC
:101400000268120602D402681206F3D54F228281C6
:1014100003681B0608D403681B0605D403681B0673
:1014200002D403681B06F3D54D23838105682D067E
:1014300008D405682D0605D405682D0602D4056874
:101440002D06F3D5838103681B0608D403681B06A9
:1014500005D403681B0602D403681B06F3D5412399
:10146000838103681B0608D403681B0605D4036840
:101470001B0602D403681B06F3D54E238381036841
:101480001B0608D403681B0605D403681B0602D498
:1014900003681B06F3D54423838103681B0608D425
:1014A00003681B0605D403681B0602D403681B06E9
:1014B000F3D52023838103681B0608D403681B0629
:1014C00005D403681B0602D403681B06F3D5542316
:1014D000838103681B0608D403681B0605D40368D0
:1014E0001B0602D403681B06F3D58281026812062C
:1014F00008D40268120605D40268120602D40268F3
:101500001206F3D54722828103681B0608D40368BC
:101510001B0605D403681B0602D403681B06F3D51B
:1015200082810268120608D40268120605D4026895
:10153000120602D402681206F3D54C228281026898
:10154000120608D40268120605D40268120602D4F4
:1015500002681206F3D5452282810268120608D479
:101560000268120605D40268120602D40268120646
:10157000F3D50A2282810120884003490A6842404B
:101580000A600120606070BD1408004896B0FEF744
:101590007FFE09AD281D3021FEF72CFE0024129499
:1015A00010200D9001260C96022009902846FEF787
:1015B00091FF002803D0EFF3108072B6FEE7089485
:1015C000079406940720059005A82146FEF7C0FE63
:1015D000002803D0EFF3108072B6FEE7B204049245
:1015E000B1480168114301600168114009910999EE
:1015F000F10402680A43026002680A4009920999EC
:10160000B2034168114341604068104015460092A2
:10161000099009983105A54B1846243802688A4379
:101620000260710502680A430260F1021A688A4387
:101630001A60B1021A680A431A6019689C4A11407C
:10164000196019689B4A11401960B10502688A4304
:101650000260F10502680A43026018689649084072
:101660001860186828431860186894490840186082
:101670001868934908401860924D2F461C3F3868FF
:101680000421039108433860386808210291084317
:1016900038603868202101433960FEF715FF4B217F
:1016A000C90100F023F92946103901910860386812
:1016B00030433860700784490860FF200002834986
:1016C0000A688243F00310180860310380480268FA
:1016D0000A4302600168794A114001604021CB430E
:1016E00042681A404260826875490A408260826896
:1016F00072490A408260C26871490A40C260C26889
:101700006E490A40C26042691A4042610168009A0B
:10171000114301600168684B194001608021C94391
:1017200042680A40426082686A4B1A40826082685E
:10173000614B1A408260C268664B1A40C260C26840
:101740005D4B1A40C26042690A404261310402683E
:101750000A430260026860490A4002604268554BD1
:101760001A40426082685D4B1A40826082680A407B
:101770008260C2681A40C260C2680A40C2604169A1
:101780004C4A114041610168049A114301600268AA
:1017900053490A4002604268454B1A4042608268E1
:1017A000504B1A40826082680A408260C2681A40C8
:1017B000C260C2680A40C26041693D4A114041614D
:1017C00011208002394A116801431160FEF77CFE46
:1017D000E121490200F0ACF8019A1168014311605F
:1017E00038680399084338603868029908433860BC
:1017F0003868304338603C48C168002903D04268EB
:10180000002A4BD1F9E72968090608D42968090696
:1018100005D42968090602D429680906F3D54321AD
:10182000A9812968090608D42968090605D4296808
:10183000090602D429680906F3D54D21A981296832
:10184000090608D42968090605D42968090602D4BE
:1018500029680906F3D54421A9812968090608D415
:101860002968090605D42968090602D429680906E9
:10187000F3D53F21A9812968090608D429680906FA
:1018800005D42968090602D429680906F3D5C6607B
:101890000A21A98131464268002AAED00460446022
:1018A0008460C4602146A8E7141002402404004864
:1018B000FFFDFFFFFFFEFFFFFF7FFFFFFFDFFFFFDB
:1018C000FFEFFFFF1C48004000E100E01CE400E0E7
:1018D00000080048FFBFFFFFFFFFFDFFFFFFFEFF07
:1018E000FFFFF7FFFFFFFBFF7000002043088B4264
:1018F0001AD3002203098B4279D3030A8B425ED3A9
:10190000030B8B4242D3030C8B4227D30902FF22E5
:1019100012BA030C8B4202D31212090203D0030B3A
:101920008B4233D31AE0D3E0411A8041401C704708
:1019300003460B4371D443088B42F5D300220309BD
:101940008B4254D3030A8B4239D3030B8B421DD3F2
:10195000030C8B4202D394466EE0090AC30B8B4200
:1019600001D3CB03C01A5241830B8B4201D38B03AB
:10197000C01A5241430B8B4201D34B03C01A524150
:10198000030B8B4201D30B03C01A5241C30A8B4293
:1019900001D3CB02C01A5241830A8B4201D38B027E
:1019A000C01A5241430A8B4201D34B02C01A524122
:1019B000030A8B4201D30B02C01A5241CDD2C30994
:1019C0008B4201D3CB01C01A524183098B4201D310
:1019D0008B01C01A524143098B4201D34B01C01AFB
:1019E000524103098B4201D30B01C01A5241C30873
:1019F0008B4201D3CB00C01A524183088B4201D3E2
:101A00008B00C01A524143088B4201D34B00C01ACD
:101A10005241411A524110007047CA0F00D049424A
:101A2000031000D34042534000229C4603098B42DE
:101A30002DD3030A8B4212D38901FC2212BA030A66
:101A40008B420CD3890192118B4208D389019211E8
:101A50008B4204D3890137D0921100E08909C30970
:101A60008B4201D3CB01C01A524183098B4201D36F
:101A70008B01C01A524143098B4201D34B01C01A5A
:101A8000524103098B4201D30B01C01A5241C308D2
:101A90008B4201D3CB00C01A524183088B4201D341
:101AA0008B00C01A5241D9D243088B4201D34B005C
:101AB000C01A5241411A00D20146524110466346B3
:101AC0005B1000D34042704763465B1000D3404236
:101AD00001B50021004201D0C9430846C046C046B6
:101AE00002BD000000000000000001020304060720
:101AF000080902030405060708090A0B0C0D0E0F5E
:101B000010100102030405060708090A0B0C0D0E4C
:101B10000F100000381B000800000020100000001B
:101B20001C010008481B0008100000207806000077
:101B30003C0100080000000001000000040000005B
:081B400000127A000000000011
:04000005080000C12E
:00000001FF
